:100000005DC00000A2C20000C7C200007EC00000A8
:100010007CC000007AC0000078C000003AC2000036
:1000200074C0000072C0000070C0000088C50000ED
:100030006CC000006AC0000068C0000066C000001C
:10004000DDC2000062C000003AC100006AC10000C9
:100050005CC000005AC0000058C0000056C000003C
:1000600054C0000052C0000002000000080002015D
:10007000000003040700000000000000000102046B
:10008000081020408001020408102001020408101A
:100090002004040404040404040202020202020311
:1000A000030303030300000000250028002B0000C9
:1000B000000000240027002A0000BF0111241FBEF9
:1000C000CFEFD8E0DEBFCDBF11E0A0E0B1E0E8EBBC
:1000D000F2E102C005900D92A232B107D9F726E0F5
:1000E000A2E2B1E001C01D92A831B207E1F710E031
:1000F000CEE5D0E004C02197FE010E945409CD3521
:10010000D107C9F771D20C945A097ACFFC01918DAD
:10011000228D892F90E0805C9F4F821B91098F7305
:1001200099270895FC01918D828D981731F0828D69
:10013000E80FF11D858D90E008958FEF9FEF0895F2
:10014000FC01918D828D981761F0828DDF01A80FDF
:10015000B11D5D968C91928D9F5F9F73928F90E001
:1001600008958FEF9FEF0895FC01538D448D252F47
:1001700030E0842F90E0821B930B541710F0CF9641
:1001800008950197089586EB91E0892B41F080E076
:1001900090E0892B21F0EAD081110C9400000895A1
:1001A000FC01848DDF01A80FB11DA35ABF4F2C9114
:1001B000848D90E001968F739927848FA689B789E3
:1001C0002C93A089B1898C91837080648C93938DDA
:1001D000848D981306C00288F389E02D80818F7D7D
:1001E00080830895EF92FF920F931F93CF93DF9335
:1001F000EC0181E0888F9B8D8C8D981305C0E88978
:10020000F989808185FD25C0F62E0B8D10E00F5FEA
:100210001F4F0F731127E02E8C8DE8120BC00FB605
:1002200007FCFACFE889F989808185FFF5CFCE01F7
:10023000B7DFF2CF8B8DFE01E80FF11DE35AFF4FC0
:10024000F0829FB7F8940B8FEA89FB8980818062E6
:100250000AC09FB7F894EE89FF896083E889F9891D
:1002600080818370806480839FBF81E090E0DF9114
:10027000CF911F910F91FF90EF900895CF93DF934F
:10028000EC01888D8823C1F0EA89FB89808185FD96
:1002900005C0A889B9898C9186FD0EC00FB607FCF0
:1002A000F5CF808185FFF2CFA889B9898C9185FF30
:1002B000EDCFCE0175DFE8CFDF91CF9108951F928A
:1002C0000F920FB60F9211242F938F939F93EF935A
:1002D000FF93E0913201F09133018081E091380188
:1002E000F091390182FD12C0908180913B018F5FB6
:1002F0008F7320913C01821751F0E0913B01F0E0B7
:10030000EE5DFE4F958F80933B0101C08081FF9190
:10031000EF919F918F912F910F900FBE0F901F9093
:1003200018951F920F920FB60F9211242F933F939F
:100330004F935F936F937F938F939F93AF93BF93ED
:10034000EF93FF9382E291E02BDFFF91EF91BF915A
:10035000AF919F918F917F916F915F914F913F915D
:100360002F910F900FBE0F901F90189582E291E091
:10037000CDDE21E0892B09F420E0822F0895E2E20E
:10038000F1E01382128288EE93E0A0E0B0E0848373
:100390009583A683B78389E091E09183808385EC80
:1003A00090E09587848784EC90E09787868780EC3F
:1003B00090E0918B808B81EC90E0938B828B82EC30
:1003C00090E0958B848B86EC90E0978B868B118EDA
:1003D000128E138E148E0895CF92DF92EF92FF92B9
:1003E0000F931F93CF93DF936C017A018B01C0E0D1
:1003F000D0E0CE15DF0581F0D8016D918D01D601D9
:10040000ED91FC910190F081E02DC6010995892BB9
:1004100011F02196EECF7E01C701DF91CF911F91A0
:100420000F91FF90EF90DF90CF900895813039F0D9
:1004300018F0823051F0089510926E000895809166
:100440006F008D7F80936F000895809170008D7F85
:100450008093700081E08093B0008091B100887F2C
:1004600084608093B1001092B3000895CF93C82F99
:1004700080910001C81307C0E8E6F0E084919FEF87
:100480009093000101C08FEFD1DF60E08C2FCF91FE
:100490009FC11F920F920FB60F9211242F933F937B
:1004A0004F935F936F937F938F939F93AF93BF937C
:1004B000EF93FF938091C2019091C301A091C40179
:1004C000B091C501892B8A2B8B2B51F19091BF01E3
:1004D000E091C001F091C1018081892780838091E2
:1004E000C2019091C301A091C401B091C501181639
:1004F00019061A061B06BCF48091C2019091C30133
:10050000A091C401B091C5010197A109B1098093DF
:10051000C2019093C301A093C401B093C50103C06D
:1005200080910001A3DFFF91EF91BF91AF919F9167
:100530008F917F916F915F914F913F912F910F908C
:100540000FBE0F901F90189508951F920F920FB62F
:100550000F9211242F933F934F935F936F937F9349
:100560008F939F93AF93BF93EF93FF93E09101011C
:10057000F09102010995FF91EF91BF91AF919F9189
:100580008F917F916F915F914F913F912F910F903C
:100590000FBE0F901F9018951F920F920FB60F92DB
:1005A00011242F933F934F935F936F937F938F9378
:1005B0009F93AF93BF93EF93FF93E0910301F0916B
:1005C00004010995FF91EF91BF91AF919F918F9198
:1005D0007F916F915F914F913F912F910F900FBE3F
:1005E0000F901F901895089553D0FDDF49D6C3ECA6
:1005F000D0E059D62097E9F3C6DDFBCF1F920F92CA
:100600000FB60F9211242F933F938F939F93AF9325
:10061000BF938091C7019091C801A091C901B09189
:10062000CA013091C60123E0230F2D3720F4019633
:10063000A11DB11D05C026E8230F0296A11DB11D05
:100640002093C6018093C7019093C801A093C9016C
:10065000B093CA018091CB019091CC01A091CD01C2
:10066000B091CE010196A11DB11D8093CB01909355
:10067000CC01A093CD01B093CE01BF91AF919F91DA
:100680008F913F912F910F900FBE0F901F90189553
:10069000789484B5826084BD84B5816084BD85B55D
:1006A000826085BD85B5816085BDEEE6F0E0808124
:1006B00081608083E1E8F0E0108280818260808345
:1006C000808181608083E0E8F0E0808181608083C8
:1006D000E1EBF0E0808184608083E0EBF0E08081FA
:1006E00081608083EAE7F0E080818460808380819C
:1006F0008260808380818160808380818068808344
:100700001092C1000895833081F028F4813099F06F
:100710008230A1F008958730A9F08830B9F0843094
:10072000D1F4809180008F7D03C0809180008F770D
:1007300080938000089584B58F7702C084B58F7D43
:1007400084BD08958091B0008F7703C08091B00080
:100750008F7D8093B0000895CF93DF9390E0FC01EC
:10076000E358FF4F2491FC01EF56FF4F84918823FB
:1007700061F190E0880F991FFC01E155FF4FC59191
:10078000D491FC01EB55FF4FA591B491611109C0C3
:100790009FB7F8948881209582238883EC912E233B
:1007A0000BC0623061F49FB7F8948881322F309586
:1007B00083238883EC912E2B2C939FBF06C08FB789
:1007C000F894E8812E2B28838FBFDF91CF91089575
:1007D0001F93CF93DF93282F30E0F901E759FF4FA4
:1007E0008491F901E358FF4FD491F901EF56FF4F7F
:1007F000C491CC23B9F0162F811185DFEC2FF0E0E6
:10080000EE0FFF1FEB55FF4FA591B4919FB7F894E2
:10081000111104C08C91D095D82302C0EC91DE2B2D
:10082000DC939FBFDF91CF911F910895CF93DF930A
:10083000EC01ACD38091CF019091D001892B31F4A0
:1008400084ED91E09093D0018093CF012091D1016C
:100850003091D201C9018C0F9D1F873E43E0940760
:1008600070F42817390758F4C091CF01D091D00106
:10087000C20FD31F9093D2018093D10102C0C0E078
:10088000D0E032D4CE01DF91CF910895089531E1C7
:10089000FC013083319722E220833197A3E3A083C8
:1008A000319760833197708331971082319760E878
:1008B000608331971082319762E06083319763E003
:1008C0006083319764E06083319765E0608331979E
:1008D00066E06083319767E06083319768E060830A
:1008E000319769E06083319760E1608331973083AD
:1008F000319732E13083319733E13083319734E1FE
:100900003083319735E13083319736E13083319749
:1009100037E13083319738E13083319739E13083E3
:10092000319730E23083319731E230833197208341
:10093000319723E220833197408331975083319759
:1009400026E22083319727E22083319728E2208313
:10095000319729E22083319720E32083319721E3E7
:100960002083869708951092890089EF80938800EC
:100970008BE080938100EFE6F0E0808182608083ED
:10098000A0911606B0911706CD91CDBFDD91DEBFC7
:10099000FF91EF91DF91CF91BF91AF919F918F9197
:1009A0007F916F915F914F913F912F911F910F9187
:1009B000FF90EF90DF90CF90BF90AF909F908F907F
:1009C0007F906F905F904F903F902F901F900F906F
:1009D0000FBE0F90089581E008950F920FB6F8941E
:1009E0000F921F9211242F923F924F925F926F921B
:1009F0007F928F929F92AF92BF92CF92DF92EF92AF
:100A0000FF920F931F932F933F934F935F936F9397
:100A10007F938F939F93AF93BF93CF93DF93EF9386
:100A2000FF93A0911606B09117060DB60D920EB663
:100A30000D92D3D3A0911606B0911706CD91CDBFDC
:100A4000DD91DEBFFF91EF91DF91CF91BF91AF912B
:100A50009F918F917F916F915F914F913F912F91D6
:100A60001F910F91FF90EF90DF90CF90BF90AF90CC
:100A70009F908F907F906F905F904F903F902F90BE
:100A80001F900F900FBE0F9008950F920FB6F8941D
:100A90000F921F9211242F923F924F925F926F926A
:100AA0007F928F929F92AF92BF92CF92DF92EF92FE
:100AB000FF920F931F932F933F934F935F936F93E7
:100AC0007F938F939F93AF93BF93CF93DF93EF93D6
:100AD000FF93A0911606B09117060DB60D920EB6B3
:100AE0000D925AD2811179D3A0911606B0911706B2
:100AF000CD91CDBFDD91DEBFFF91EF91DF91CF9121
:100B0000BF91AF919F918F917F916F915F914F9125
:100B10003F912F911F910F91FF90EF90DF90CF9019
:100B2000BF90AF909F908F907F906F905F904F900D
:100B30003F902F901F900F900FBE0F900895A5DF4C
:100B40001895FC010396928381832FEF3FEF348346
:100B50002383968385839087878310820895FC0181
:100B6000118610860895CF93DF939C01FB01DC0171
:100B70001196CD91DC911297D383C2838C819D8194
:100B8000958384838C819D81DC0113967C936E9385
:100B900012977D836C8331872087F90180818F5F75
:100BA0008083DF91CF9108950F931F93CF93DF93AD
:100BB0008C01FB01808191818F3F2FEF920721F4FF
:100BC000E801AF81B8850EC0D801139612962D9119
:100BD0003C911397E901488159818417950710F0DA
:100BE000D901F4CF12968D919C91139793838283B0
:100BF000EC01FD83EC83B583A4831396FC93EE9301
:100C0000129711870087F80180818F5F8083DF91C1
:100C1000CF911F910F910895CF93DF93FC01A08591
:100C2000B1858281938124813581EC013D832C83C0
:100C3000C481D5819B838A8311968D919C91129753
:100C4000E817F90721F41296DC93CE9311971186D9
:100C500010868C9181508C938C91DF91CF91089567
:100C6000E091DE05F091DF058081811103C08FEFF7
:100C70009FEF0CC0E091DE05F091DF050580F68165
:100C8000E02D0680F781E02D828193819093BF054E
:100C90008093BE0508950F931F93CF93DF93EC01CC
:100CA0000091C6051091C705809116069091170610
:100CB0000296B2DFC00FD11FE0911606F091170621
:100CC000D383C2836091160670911706C017D107AF
:100CD00058F48091DC059091DD056E5F7F4FDF91C8
:100CE000CF911F910F9160CF8091DE059091DF052C
:100CF0006E5F7F4F59DF8091BE059091BF05C81789
:100D0000D90720F4D093BF05C093BE05DF91CF91E2
:100D10001F910F9108958091C9058823F1F00FB6B6
:100D2000F8940F92E091CF05F091D005C681D7815C
:100D3000CE01029671DF8091C80581508093C8056D
:100D40008091C90581508093C9050F900FBE8F898E
:100D5000988D9CDDCE019ADDDECF8091F205823048
:100D6000D0F23BDED8CF4F925F926F927F928F92FC
:100D70009F92AF92BF92CF92DF92EF92FF920F932A
:100D8000CF93DF934C016B015A012901CA014EDD5B
:100D90003C01892B09F4C1C086E290E047DDEC01FB
:100DA000009789F0788E6F8A21E0A21AB108A60C0C
:100DB000B71CC114D104C1F0BC01675E7F4FF601BE
:100DC000C601089606C0C30161DDA7C0E817F90790
:100DD00049F09F014191DB014D93BD01D9012C9157
:100DE0002111F4CF18A201C0198E043008F003E0DD
:100DF0000E8B6E01B2E0CB0ED11CC601B0DECE016F
:100E00000C96ADDED987C88784E090E0801B9109FD
:100E10009D878C87DB8BCA8B19A21AA21BA21CA2EE
:100E20001DA2A201B401C50132DD99838883E114BA
:100E3000F10419F0F701D183C0830FB6F8940F9233
:100E40008091C8058F5F8093C805809116069091A8
:100E50001706892B69F5D0931706C0931606809163
:100E6000C8058130A9F582EF95E06BDE8BEF95E048
:100E700068DE84E096E065DE8DE096E062DE89EE75
:100E800095E05FDE80EE95E05CDE83ED95E059DE77
:100E90008AEC95E056DE89EE95E09093DF0580932D
:100EA000DE0580EE95E09093DD058093DC0510C0B3
:100EB0008091C40581110CC0E0911606F0911706CF
:100EC00096898E89891720F0D0931706C09316064D
:100ED0008091C0058F5F8093C0058E899091C50574
:100EE000981710F48093C505F9E08F9FC001112475
:100EF000B6018E509A4F37DE0F900FBE8091C40519
:100F0000882349F0E0911606F091170696898E899C
:100F1000981708F462DD81E001C08FEFDF91CF9177
:100F20000F91FF90EF90DF90CF90BF90AF909F9088
:100F30008F907F906F905F904F900895EF92FF9207
:100F40000F938CEBE82E85E0F82E00E020E030E0F7
:100F500045E550E067E171E08BE896E004DF813021
:100F600089F4F8942FEF3FEF3093BF052093BE052F
:100F70008093C4051092C7051092C6050F91FF908B
:100F8000EF90F1CC0F91FF90EF9008958091BB0509
:100F90008F5F8093BB050895CF92DF92EF92FF920F
:100FA0000F931F93CF93DF938091BB05811188C06E
:100FB0000091C6051091C7050F5F1F4F1093C7051D
:100FC0000093C60501151105B1F48091DE059091DD
:100FD000DF052091DC053091DD053093DF0520939E
:100FE000DE059093DD058093DC058091C1058F5F60
:100FF0008093C10535DE8091BE059091BF05C0E0AC
:101000000817190708F44CC0D9E0E091DE05F0910B
:10101000DF058081811103C08FEF9FEF11C0E09148
:10102000DE05F091DF050580F681E02DE680F78092
:10103000D70112968D919C9113970817190728F4E0
:101040009093BF058093BE052BC06701B2E0CB0E25
:10105000D11CC601E1DDF70184899589892B19F03E
:10106000C7010C96D9DDD70156968C919091C50594
:10107000981710F48093C505D89FC0011124B601BC
:101080008E509A4F70DDE0911606F0911706D70149
:1010900056969C918689981708F4B7CFC1E0B5CFD2
:1010A000E0911606F0911706E689B9E0EB9FF00192
:1010B0001124EE50FA4F8081823040F0C1E006C02A
:1010C0008091C3058F5F8093C305C0E08091C20506
:1010D0008111C1E08C2FDF91CF911F910F91FF9073
:1010E000EF90DF90CF900895EF92FF920F931F93B0
:1010F000CF93DF930FB6F8940F928091BB05815088
:101100008093BB058091BB05882311F080E04CC023
:101110008091C8058823D1F3C0E0D0E089E0F82EA3
:10112000EE24E3948091D305882339F1E091D8052A
:10113000F091D905C681D781CE010C966DDD8E0167
:101140000E5F1F4FC80168DD8E899091C505981705
:1011500010F48093C505F89EC0011124B8018E508B
:101160009A4F01DDE0911606F09117069E89868957
:101170009817C0F2E092C205D5CFCD2B09F070DDF3
:10118000C091C305CC2349F0D1E006DF8111D09393
:10119000C205C150D1F71092C3058091C2058823C2
:1011A00009F4B4CF1ADC81E00F900FBEDF91CF912C
:1011B0001F910F91FF90EF900895CF93DF93EC0173
:1011C000892B11F40ADC06C0E1DECE0164DD8CDF80
:1011D0008823C1F3DF91CF9108958091BB058823C7
:1011E00021F081E08093C20508951092C20580919C
:1011F000C50569E0482F50E0649F9001659F300D60
:101200001124F901EE50FA4F9081911102C08150E2
:10121000F1CFA181B28112960D90BC91A02DB28325
:10122000A1832B503A4FA217B30731F412962D9198
:101230003C9113973283218399E0949FF001959F0D
:10124000F00D1124EE50FA4F0180F281E02D26813D
:10125000378130931706209316068093C5050895AD
:1012600061E08DE079DA61E08DE0B2DA88EE93E05A
:10127000A4DF60E08DE0ACDA88EE93E09EDFF3CF90
:10128000EF92FF920F93E12CF12C03E020E030E08D
:1012900040E051E06CE171E080E399E064DD0F91A2
:1012A000FF90EF904BCE0895EE0FFF1F0590F49145
:0812B000E02D0994F894FFCF32
:1012B800FFA402A40200000000F200EC01B4003E0A
:1012C800018600A000920049444C4500426C696EBA
:0212D8006B00A9
:00000001FF
