:100000005DC00000A2C20000C7C200007EC00000A8
:100010007CC000007AC0000078C000003AC2000036
:1000200074C0000072C0000070C000000C94310A5F
:100030006CC000006AC0000068C0000066C000001C
:10004000DDC2000062C000003AC100006AC10000C9
:100050005CC000005AC0000058C0000056C000003C
:1000600054C0000052C0000002000000080002015D
:10007000000003040700000000000000000102046B
:10008000081020408001020408102001020408101A
:100090002004040404040404040202020202020311
:1000A000030303030300000000250028002B0000C9
:1000B000000000240027002A0000BF0111241FBEF9
:1000C000CFEFD8E0DEBFCDBF11E0A0E0B1E0E0EBC4
:1000D000F5E102C005900D92A432B107D9F728E0EE
:1000E000A4E2B1E001C01D92A736B207E1F710E02B
:1000F000CEE5D0E004C02197FE010E94D00ACD35A4
:10010000D107C9F771D20C94D60A7ACFFC01918D30
:10011000228D892F90E0805C9F4F821B91098F7305
:1001200099270895FC01918D828D981731F0828D69
:10013000E80FF11D858D90E008958FEF9FEF0895F2
:10014000FC01918D828D981761F0828DDF01A80FDF
:10015000B11D5D968C91928D9F5F9F73928F90E001
:1001600008958FEF9FEF0895FC01538D448D252F47
:1001700030E0842F90E0821B930B541710F0CF9641
:1001800008950197089586EB91E0892B41F080E076
:1001900090E0892B21F0EAD081110C9400000895A1
:1001A000FC01848DDF01A80FB11DA35ABF4F2C9114
:1001B000848D90E001968F739927848FA689B789E3
:1001C0002C93A089B1898C91837080648C93938DDA
:1001D000848D981306C00288F389E02D80818F7D7D
:1001E00080830895EF92FF920F931F93CF93DF9335
:1001F000EC0181E0888F9B8D8C8D981305C0E88978
:10020000F989808185FD25C0F62E0B8D10E00F5FEA
:100210001F4F0F731127E02E8C8DE8120BC00FB605
:1002200007FCFACFE889F989808185FFF5CFCE01F7
:10023000B7DFF2CF8B8DFE01E80FF11DE35AFF4FC0
:10024000F0829FB7F8940B8FEA89FB8980818062E6
:100250000AC09FB7F894EE89FF896083E889F9891D
:1002600080818370806480839FBF81E090E0DF9114
:10027000CF911F910F91FF90EF900895CF93DF934F
:10028000EC01888D8823C1F0EA89FB89808185FD96
:1002900005C0A889B9898C9186FD0EC00FB607FCF0
:1002A000F5CF808185FFF2CFA889B9898C9185FF30
:1002B000EDCFCE0175DFE8CFDF91CF9108951F928A
:1002C0000F920FB60F9211242F938F939F93EF935A
:1002D000FF93E0913401F09135018081E0913A0182
:1002E000F0913B0182FD12C0908180913D018F5FB2
:1002F0008F7320913E01821751F0E0913D01F0E0B3
:10030000EC5DFE4F958F80933D0101C08081FF9190
:10031000EF919F918F912F910F900FBE0F901F9093
:1003200018951F920F920FB60F9211242F933F939F
:100330004F935F936F937F938F939F93AF93BF93ED
:10034000EF93FF9384E291E02BDFFF91EF91BF9158
:10035000AF919F918F917F916F915F914F913F915D
:100360002F910F900FBE0F901F90189584E291E08F
:10037000CDDE21E0892B09F420E0822F0895E4E20C
:10038000F1E01382128288EE93E0A0E0B0E0848373
:100390009583A683B7838CE091E09183808385EC7D
:1003A00090E09587848784EC90E09787868780EC3F
:1003B00090E0918B808B81EC90E0938B828B82EC30
:1003C00090E0958B848B86EC90E0978B868B118EDA
:1003D000128E138E148E0895CF92DF92EF92FF92B9
:1003E0000F931F93CF93DF936C017A018B01C0E0D1
:1003F000D0E0CE15DF0581F0D8016D918D01D601D9
:10040000ED91FC910190F081E02DC6010995892BB9
:1004100011F02196EECF7E01C701DF91CF911F91A0
:100420000F91FF90EF90DF90CF900895813039F0D9
:1004300018F0823051F0089510926E000895809166
:100440006F008D7F80936F000895809170008D7F85
:100450008093700081E08093B0008091B100887F2C
:1004600084608093B1001092B3000895CF93C82F99
:1004700080910001C81307C0E8E6F0E084919FEF87
:100480009093000101C08FEFD1DF60E08C2FCF91FE
:100490009FC11F920F920FB60F9211242F933F937B
:1004A0004F935F936F937F938F939F93AF93BF937C
:1004B000EF93FF938091C4019091C501A091C60173
:1004C000B091C701892B8A2B8B2B51F19091C101DF
:1004D000E091C201F091C3018081892780838091DE
:1004E000C4019091C501A091C601B091C701181631
:1004F00019061A061B06BCF48091C4019091C5012F
:10050000A091C601B091C7010197A109B1098093DB
:10051000C4019093C501A093C601B093C70103C065
:1005200080910001A3DFFF91EF91BF91AF919F9167
:100530008F917F916F915F914F913F912F910F908C
:100540000FBE0F901F90189508951F920F920FB62F
:100550000F9211242F933F934F935F936F937F9349
:100560008F939F93AF93BF93EF93FF93E09101011C
:10057000F09102010995FF91EF91BF91AF919F9189
:100580008F917F916F915F914F913F912F910F903C
:100590000FBE0F901F9018951F920F920FB60F92DB
:1005A00011242F933F934F935F936F937F938F9378
:1005B0009F93AF93BF93EF93FF93E0910301F0916B
:1005C00004010995FF91EF91BF91AF919F918F9198
:1005D0007F916F915F914F913F912F910F900FBE3F
:1005E0000F901F901895089553D0FDDF4ED1C3ECA6
:1005F000D0E06AD12097E9F3C6DDFBCF1F920F92BE
:100600000FB60F9211242F933F938F939F93AF9325
:10061000BF938091C9019091CA01A091CB01B09183
:10062000CC013091C80123E0230F2D3720F401962F
:10063000A11DB11D05C026E8230F0296A11DB11D05
:100640002093C8018093C9019093CA01A093CB0164
:10065000B093CC018091CD019091CE01A091CF01BA
:10066000B091D0010196A11DB11D8093CD01909351
:10067000CE01A093CF01B093D001BF91AF919F91D4
:100680008F913F912F910F900FBE0F901F90189553
:10069000789484B5826084BD84B5816084BD85B55D
:1006A000826085BD85B5816085BDEEE6F0E0808124
:1006B00081608083E1E8F0E0108280818260808345
:1006C000808181608083E0E8F0E0808181608083C8
:1006D000E1EBF0E0808184608083E0EBF0E08081FA
:1006E00081608083EAE7F0E080818460808380819C
:1006F0008260808380818160808380818068808344
:100700001092C1000895833081F028F4813099F06F
:100710008230A1F008958730A9F08830B9F0843094
:10072000D1F4809180008F7D03C0809180008F770D
:1007300080938000089584B58F7702C084B58F7D43
:1007400084BD08958091B0008F7703C08091B00080
:100750008F7D8093B0000895CF93DF9390E0FC01EC
:10076000E358FF4F2491FC01EF56FF4F84918823FB
:1007700061F190E0880F991FFC01E155FF4FC59191
:10078000D491FC01EB55FF4FA591B491611109C0C3
:100790009FB7F8948881209582238883EC912E233B
:1007A0000BC0623061F49FB7F8948881322F309586
:1007B00083238883EC912E2B2C939FBF06C08FB789
:1007C000F894E8812E2B28838FBFDF91CF91089575
:1007D0001F93CF93DF93282F30E0F901E759FF4FA4
:1007E0008491F901E358FF4FD491F901EF56FF4F7F
:1007F000C491CC23B9F0162F811185DFEC2FF0E0E6
:10080000EE0FFF1FEB55FF4FA591B4919FB7F894E2
:10081000111104C08C91D095D82302C0EC91DE2B2D
:10082000DC939FBFDF91CF911F910895CF93DF930A
:1008300000D000D0CDB7DEB761E08EE08DDFF1D122
:1008400069837A838B839C8380910501843039F09E
:1008500094EFC92EDD24D394E12CF12C05C08AEF4E
:10086000C82ED12CE12CF12C61E08EE0B1DFB70174
:10087000A601CE0101961BD360E08EE0A9DFB7018F
:10088000A601CE01019613D3DFCFAF92BF92CF92D4
:10089000DF92EF92FF920F93A12CB12CC12CD12C9F
:1008A000E12CF12C01E020E030E048EC50E06AE17E
:1008B00071E086E194E07AD00F91FF90EF90DF90A5
:1008C000CF90BF90AF9068C10895E091FA01F09188
:1008D000FB018081811104C08FEF9FEFDC010EC00E
:1008E000E091FA01F091FB010780F085E02D008492
:1008F000F185E02D82819381A481B5818093D2011D
:100900009093D301A093D401B093D5010895CF92D1
:10091000DF92EF92FF92E0918002F0918102628378
:10092000738384839583C090DC01D090DD01E090D7
:10093000DE01F090DF016C157D058E059F0578F4D2
:1009400060918002709181028091F8019091F9018B
:100950006E5F7F4FFF90EF90DF90CF90BAC56B0135
:100960007C0160918002709181028091FA019091E6
:10097000FB016E5F7F4FADD58091D2019091D30185
:10098000A091D401B091D501C816D906EA06FB069C
:1009900040F4C092D201D092D301E092D401F092FF
:1009A000D501FF90EF90DF90CF9008955F926F9206
:1009B0007F928F929F92AF92BF92CF92DF92EF92EF
:1009C000FF920F931F93CF93DF934C01162F572E57
:1009D0005A013901C114D10431F4CA012FD36C0179
:1009E000892B09F4C8C08CE290E028D3EC01009771
:1009F00079F0DC8ECB8E21E0A21AB108CA0CDB1C88
:100A0000BC01635E7F4FE12FF52DCF01089606C034
:100A1000C601A4D3B0C0E817F90749F09F0141917E
:100A2000DB014D93BD01D9012C912111F4CF1CA202
:100A3000102F0A3008F019E01A8F1DA31EA25E01C4
:100A4000B2E0AB0EB11CC5011FD5CE010E961CD570
:100A5000DB87CA878AE090E0A0E0B0E0811B9109C3
:100A6000A109B1098E879F87A88BB98BDF8BCE8BAD
:100A70001FA218A619A61AA61BA6A301B401C60197
:100A800097D399838883E114F10419F0F701D18396
:100A9000C0830FB6F8940F928091E0018F5F80932E
:100AA000E0018091800290918102892B89F5D09399
:100AB0008102C09380028091E0018130C1F582E122
:100AC000E82E82E0F82E90E8C92E92E0D92EC701D8
:100AD000CAD4FBE0EF0EF11CCE14DF04C1F787E0AF
:100AE00092E0C1D48CEF91E0BED48DEE91E0BBD406
:100AF00082EE91E0B8D487E092E09093FB0180937E
:100B0000FA018CEF91E09093F9018093F8010FC006
:100B10008091DA0181110BC0E0918002F091810295
:100B2000828D081720F0D0938102C09380028091BB
:100B3000D6018F5F8093D6018A8D9091DB01981743
:100B400010F48093DB012BE0829FC0011124B501DA
:100B50008E5E9D4F9DD40F900FBE8091DA01882349
:100B600041F0E0918002F0918102828D801708F4BB
:100B7000C6D381E001C08FEFDF91CF911F910F911C
:100B8000FF90EF90DF90CF90BF90AF909F908F90AD
:100B90007F906F905F900895AF92BF92CF92DF9257
:100BA000EF92FF920F93A12CB12CC12CD12CE12CF0
:100BB000F12C00E020E030E045E550E06EE171E02E
:100BC00084EA97E0F3DE8130F1F4F8944FEF5FEFC1
:100BD000BA014093D2015093D3016093D401709332
:100BE000D5018093DA011092DC011092DD011092A0
:100BF000DE011092DF010F91FF90EF90DF90CF9018
:100C0000BF90AF9041C30F91FF90EF90DF90CF90D6
:100C1000BF90AF9008958091D1018F5F8093D101F3
:100C200008950FB6F8940F926091DC017091DD0188
:100C30008091DE019091DF010F900FBE08958F9299
:100C40009F92AF92BF92EF92FF920F931F93CF9319
:100C5000DF938091D1018111A9C08091DC01909135
:100C6000DD01A091DE01B091DF010196A11DB11D52
:100C70008093DC019093DD01A093DE01B093DF014E
:100C80008090DC019090DD01A090DE01B090DF014A
:100C900081149104A104B104B1F48091FA019091FE
:100CA000FB012091F8013091F9013093FB01209371
:100CB000FA019093F9018093F8018091D7018F5F39
:100CC0008093D70102DE8091D2019091D301A0914F
:100CD000D401B091D501C0E088169906AA06BB06DA
:100CE00008F454C0DBE0E091FA01F091FB0180814F
:100CF000811104C08FEF9FEFDC0113C0E091FA0176
:100D0000F091FB010780F085E02D00851185F80149
:100D100082819381A481B58188169906AA06BB06B3
:100D200048F48093D2019093D301A093D401B0935F
:100D3000D5012CC07801F2E0EF0EF11CC7010DD4F3
:100D4000D80158968D919C915997892B19F0C8011B
:100D50000E9603D4F801828D9091DB01981710F460
:100D60008093DB01D89FC0011124B7018E5E9D4F97
:100D70008FD3E0918002F0918102D8015A969C9124
:100D8000828D981708F4AFCFC1E0ADCFE09180021B
:100D9000F0918102E28DBBE0EB9FF0011124EE5E49
:100DA000FD4F8081823040F0C1E006C08091D901C2
:100DB0008F5F8093D901C0E08091D8018111C1E09B
:100DC0008C2FDF91CF911F910F91FF90EF90BF90EB
:100DD000AF909F908F900895EF92FF920F931F9383
:100DE000CF93DF930FB6F8940F928091D101815089
:100DF0008093D1018091D101882311F080E04EC011
:100E00008091E0018823D1F38BE0F82EEE24E39467
:100E10008091ED01882339F1E091F401F091F50121
:100E2000C085D185CE010E9698D38E010E5F1F4FDF
:100E3000C80193D38A8D9091DB01981710F48093A9
:100E4000DB01F89EC0011124B8018E5E9D4F20D3B6
:100E5000E0918002F09181029A8D828D9817C0F204
:100E6000E092D801D5CF8091D901811108C080913D
:100E7000D801813009F0C2CF42D281E00FC0C1E079
:100E80008091D901882399F3DADE8111C093D801CA
:100E90008091D90181508093D901F2CF0F900FBE7C
:100EA000DF91CF911F910F91FF90EF900895CF9216
:100EB000DF92EF92FF92CF93DF93EC016A017B0107
:100EC000AADE4091DC015091DD016091DE0170915C
:100ED000DF0188819981AA81BB81C80ED91EEA1ED3
:100EE000FB1E481759076A077B0730F4C816D90656
:100EF000EA06FB0660F405C0C816D906EA06FB063A
:100F000040F081E04C155D056E057F0518F080E02E
:100F100001C081E0C882D982EA82FB82882349F03D
:100F20008091800290918102029617D3C701B60189
:100F3000EEDC52DF811101C0E2D1DF91CF91FF9051
:100F4000EF90DF90CF9008958091E101882321F107
:100F500062DEC091E20140DFCC23B1F30FB6F8941A
:100F60000F92E091E901F091EA01C085D185CE01AF
:100F70000296F3D28091E00181508093E00180914C
:100F8000E10181508093E1010F900FBE8B8D9C8D0C
:100F9000E5D0CE01E3D0D8CF809112028230A0F20A
:100FA000AED1D2CF8091D101882321F081E080930E
:100FB000D80108951092D8019BE0E091DB019E9F3B
:100FC000F0011124EE5EFD4F8081811106C08091F9
:100FD000DB0181508093DB01F0CF8091DB0190E059
:100FE0004BE0489F9001499F300D1124F901EE5EBE
:100FF000FD4FA181B28114960D90BC91A02DB283BA
:10100000A1832B5E3D4FA217B30731F414962D91A7
:101010003C911597328321832BE0289FF001299F73
:10102000F00D1124EE5EFD4F0180F281E02D8085F0
:101030009185909381028093800208950F931F936E
:10104000CF93DF93EC01E7DD80918202811121C013
:101050008CE892E0909388028093870210928A0233
:10106000109289028BED95E0909386028093850221
:10107000109284021092830290938F0280938E02CA
:1010800083E892E090938D0280938C0281E08093BC
:101090008202209709F02496CE0101978A3D95405F
:1010A00008F053C0E0918702F0918802A7E8B2E00F
:1010B000828193818C179D0728F022E0E338F207A4
:1010C00049F443C02081318121153105B1F3DF019D
:1010D000F901EECF0D911C9111970C5F1F4F2081EC
:1010E00031812D933C938C1B9D0B8930910500F130
:1010F000DF01AC0FBD1F13969C938E931297D38381
:10110000C28312964D915C91139767E872E0EB01F0
:1011100088819981EC012A813B812417350710F4DD
:10112000BC01F5CF11969C938E93EB01B983A883F4
:10113000809106019091070122813381821B930BDC
:10114000909307018093060102C000E010E044DEA6
:10115000C801DF91CF911F910F910895CF93DF9335
:10116000009719F1EC01249756DD8A819B81E7E80D
:10117000F2E0A081B18112962D913C91139728172E
:10118000390710F4FD01F5CFB983A883D183C0835B
:101190002091060130910701820F931F9093070160
:1011A00080930601DF91CF9117CEDF91CF91089503
:1011B00031E1FC013083319722E220833197A3E3B0
:1011C000A083319760833197708331971082319774
:1011D00060E8608331971082319762E060833197D5
:1011E00063E06083319764E06083319765E06083FA
:1011F000319766E06083319767E06083319768E0FC
:101200006083319769E06083319760E16083319753
:101210003083319732E13083319733E13083319736
:1012200034E13083319735E13083319736E13083D3
:10123000319737E13083319738E13083319739E1A5
:101240003083319730E23083319731E23083319708
:101250002083319723E22083319740833197508355
:10126000319726E22083319727E22083319728E2C5
:101270002083319729E22083319720E3208331971F
:1012800021E320838697089589E08093890083EC89
:10129000809388008BE080938100EFE6F0E080810E
:1012A00082608083A0918002B0918102CD91CDBFF8
:1012B000DD91DEBFFF91EF91DF91CF91BF91AF91B3
:1012C0009F918F917F916F915F914F913F912F915E
:1012D0001F910F91FF90EF90DF90CF90BF90AF9054
:1012E0009F908F907F906F905F904F903F902F9046
:1012F0001F900F900FBE0F90089581E008950F92F8
:101300000FB6F8940F921F9211242F923F924F9292
:101310005F926F927F928F929F92AF92BF92CF9285
:10132000DF92EF92FF920F931F932F933F934F9370
:101330005F936F937F938F939F93AF93BF93CF935D
:10134000DF93EF93FF93A0918002B09181020DB6DD
:101350000D920EB60D9226DEA0918002B091810210
:10136000CD91CDBFDD91DEBFFF91EF91DF91CF91A8
:10137000BF91AF919F918F917F916F915F914F91AD
:101380003F912F911F910F91FF90EF90DF90CF90A1
:10139000BF90AF909F908F907F906F905F904F9095
:1013A0003F902F901F900F900FBE0F9008950F92B7
:1013B0000FB6F8940F921F9211242F923F924F92E2
:1013C0005F926F927F928F929F92AF92BF92CF92D5
:1013D000DF92EF92FF920F931F932F933F934F93C0
:1013E0005F936F937F938F939F93AF93BF93CF93AD
:1013F000DF93EF93FF93A0918002B09181020DB62D
:101400000D920EB60D921BDC8111CCDDA0918002F5
:10141000B0918102CD91CDBFDD91DEBFFF91EF9103
:10142000DF91CF91BF91AF919F918F917F916F91FC
:101430005F914F913F912F911F910F91FF90EF90EE
:10144000DF90CF90BF90AF909F908F907F906F90E4
:101450005F904F903F902F901F900F900FBE0F9076
:101460000895A5DF1895FC010396928381834FEFC1
:101470005FEFBA01438354836583768390878783C4
:101480009287818710820895FC0113861286089541
:10149000CF93DF939C01FB01DC011196CD91DC9190
:1014A0001297D583C4838E819F81978386838E8193
:1014B0009F81DC0115967C936E9314977F836E83D6
:1014C00033872287F90180818F5F8083DF91CF91FD
:1014D0000895EF92FF920F931F93CF93DF937C01B8
:1014E000FB0140815181628173814F3F8FEF58072B
:1014F0006807780721F4E701A985BA8512C0D701EA
:10150000139614968D919C911597EC010881198181
:101510002A813B81401751076207730710F0DC01F5
:10152000F0CF14968D919C91159795838483EC014F
:10153000FF83EE83B783A6831596FC93EE931497EF
:10154000F386E286F70180818F5F8083DF91CF9100
:101550001F910F91FF90EF900895CF93DF93FC01BF
:10156000A285B3858481958126813781EC013F83F3
:101570002E83C681D7819D838C8311968D919C91FA
:101580001297E817F90721F41296DC93CE9311977E
:10159000138612868C9181508C93DF91CF910895A0
:1015A000EE0FFF1F0590F491E02D0994F894FFCF02
:1015B000FFA402A40204DB0500000000F200EC011D
:1015C000B4003E018600A00092004C45440049440E
:0415D0004C45000086
:00000001FF
